{
  "contractName": "SupportsInterface",
  "abi": [
    {
      "inputs": [],
      "stateMutability": "nonpayable",
      "type": "constructor"
    },
    {
      "inputs": [
        {
          "internalType": "bytes4",
          "name": "_interfaceID",
          "type": "bytes4"
        }
      ],
      "name": "supportsInterface",
      "outputs": [
        {
          "internalType": "bool",
          "name": "",
          "type": "bool"
        }
      ],
      "stateMutability": "view",
      "type": "function"
    }
  ],
  "bytecode": "0x608060405234801561001057600080fd5b5060016000806301ffc9a760e01b7bffffffffffffffffffffffffffffffffffffffffffffffffffffffff1916815260200190815260200160002060006101000a81548160ff02191690831515021790555061012c806100716000396000f3fe6080604052348015600f57600080fd5b506004361060285760003560e01c806301ffc9a714602d575b600080fd5b607560048036036020811015604157600080fd5b8101908080357bffffffffffffffffffffffffffffffffffffffffffffffffffffffff19169060200190929190505050608f565b604051808215151515815260200191505060405180910390f35b6000806000837bffffffffffffffffffffffffffffffffffffffffffffffffffffffff19167bffffffffffffffffffffffffffffffffffffffffffffffffffffffff1916815260200190815260200160002060009054906101000a900460ff16905091905056fea26469706673582212209f2f268f64b4fb053998adbb921fc6ac3b774619871828e50161767d68ebc38d64736f6c634300060b0033",
  "immutableReferences": {},
  "source": "// SPDX-License-Identifier: UNLICENSED\n\npragma solidity >=0.4.25 <0.7.0;\n\nimport \"./erc165.sol\";\n\n/**\n * @dev Implementation of standard for detect smart contract interfaces.\n */\ncontract SupportsInterface is\n  ERC165\n{\n\n  /** @dev Mapping of supported intefraces.\n   * You must not set element 0xffffffff to true.\n   */\n  mapping(bytes4 => bool) internal supportedInterfaces;\n\n  /**\n   * @dev Contract constructor.\n   */\n  constructor()\n    public\n  {\n    supportedInterfaces[0x01ffc9a7] = true; // ERC165\n  }\n\n  /**\n   * @dev Function to check which interfaces are suported by this contract.\n   * @param _interfaceID Id of the interface.\n   * @return True if _interfaceID is supported, false otherwise.\n   */\n  function supportsInterface(\n    bytes4 _interfaceID\n  )\n    external\n    override\n    view\n    returns (bool)\n  {\n    return supportedInterfaces[_interfaceID];\n  }\n\n}\n",
  "sourcePath": "/mnt/c/Users/Sam/Documents/crypto-clicker/contracts/utils/supports-interface.sol",
  "compiler": {
    "name": "solc",
    "version": "0.6.11+commit.5ef660b1.Emscripten.clang"
  },
  "schemaVersion": "3.2.2",
  "updatedAt": "2020-07-18T09:49:54.785Z",
  "devdoc": {
    "details": "Implementation of standard for detect smart contract interfaces.",
    "kind": "dev",
    "methods": {
      "constructor": {
        "details": "Contract constructor."
      },
      "supportsInterface(bytes4)": {
        "details": "Function to check which interfaces are suported by this contract.",
        "params": {
          "_interfaceID": "Id of the interface."
        },
        "returns": {
          "_0": "True if _interfaceID is supported, false otherwise."
        }
      }
    },
    "stateVariables": {
      "supportedInterfaces": {
        "details": "Mapping of supported intefraces. You must not set element 0xffffffff to true."
      }
    },
    "version": 1
  },
  "userdoc": {
    "kind": "user",
    "methods": {},
    "version": 1
  }
}